{
	"compilerInput": "{\"language\":\"Solidity\",\"sources\":{\"voyagefactory.sol\":{\"content\":\"// SPDX-License-Identifier: MIT\\r\\npragma solidity ^0.8.24;\\r\\n\\r\\ncontract VoyageFactory {\\r\\n    event ChildDeployed(address indexed deployer, address child, uint256 value);\\r\\n    error CreateFailed();\\r\\n\\r\\n    /// @notice deploy a single ultra-minimal child (runtime = 0x00)\\r\\n    function deployChild() external payable returns (address child) {\\r\\n        assembly {\\r\\n            let ptr := mload(0x40)\\r\\n\\r\\n            // Store the 5-byte initcode:\\r\\n            // 0x60 01 60 00 f3\\r\\n            // PUSH1 0x01  | return 1 byte |\\r\\n            // PUSH1 0x00  | from memory position 0 |\\r\\n            // RETURN\\r\\n            mstore(ptr, 0x60016000f3000000000000000000000000000000000000000000000000000000)\\r\\n            // ↑ padded to 32 bytes on the right\\r\\n\\r\\n            // CREATE(msg.value, ptr, 5)\\r\\n            child := create(callvalue(), ptr, 5)\\r\\n        }\\r\\n        if (child == address(0)) revert CreateFailed();\\r\\n        emit ChildDeployed(msg.sender, child, msg.value);\\r\\n    }\\r\\n\\r\\n    /// @notice bounded batch deploy (no value forwarding)\\r\\n    function deployBatch(uint256 n) external {\\r\\n        unchecked {\\r\\n            for (uint256 i = 0; i < n; ++i) {\\r\\n                address child;\\r\\n                assembly {\\r\\n                    let ptr := mload(0x40)\\r\\n                    mstore(ptr, 0x60016000f3000000000000000000000000000000000000000000000000000000)\\r\\n                    child := create(0, ptr, 5)\\r\\n                }\\r\\n                if (child == address(0)) revert CreateFailed();\\r\\n            }\\r\\n            emit ChildDeployed(msg.sender, address(0), 0);\\r\\n        }\\r\\n    }\\r\\n}\\r\\n\"}},\"settings\":{\"optimizer\":{\"enabled\":false,\"runs\":200},\"outputSelection\":{\"*\":{\"\":[\"ast\"],\"*\":[\"abi\",\"metadata\",\"devdoc\",\"userdoc\",\"storageLayout\",\"evm.legacyAssembly\",\"evm.bytecode\",\"evm.deployedBytecode\",\"evm.methodIdentifiers\",\"evm.gasEstimates\",\"evm.assembly\"]}},\"remappings\":[],\"evmVersion\":\"cancun\"}}",
	"name": "VoyageFactory",
	"bytecode": {
		"linkReferences": {},
		"object": "608060405234801561000f575f80fd5b506103e68061001d5f395ff3fe608060405260043610610028575f3560e01c80630e6650fc1461002c5780632053bfe614610054575b5f80fd5b348015610037575f80fd5b50610052600480360381019061004d919061028e565b610072565b005b61005c610170565b60405161006991906102f8565b60405180910390f35b5f5b8181101561011c575f6040517f60016000f300000000000000000000000000000000000000000000000000000081526005815ff09150505f73ffffffffffffffffffffffffffffffffffffffff168173ffffffffffffffffffffffffffffffffffffffff1603610110576040517f7e16b8cd00000000000000000000000000000000000000000000000000000000815260040160405180910390fd5b50806001019050610074565b503373ffffffffffffffffffffffffffffffffffffffff167f3230b500197d8a9313b4a77c9e36f9679263f77aabc00bd822a8f59118860c515f80604051610165929190610353565b60405180910390a250565b5f6040517f60016000f3000000000000000000000000000000000000000000000000000000815260058134f09150505f73ffffffffffffffffffffffffffffffffffffffff168173ffffffffffffffffffffffffffffffffffffffff1603610204576040517f7e16b8cd00000000000000000000000000000000000000000000000000000000815260040160405180910390fd5b3373ffffffffffffffffffffffffffffffffffffffff167f3230b500197d8a9313b4a77c9e36f9679263f77aabc00bd822a8f59118860c51823460405161024c929190610389565b60405180910390a290565b5f80fd5b5f819050919050565b61026d8161025b565b8114610277575f80fd5b50565b5f8135905061028881610264565b92915050565b5f602082840312156102a3576102a2610257565b5b5f6102b08482850161027a565b91505092915050565b5f73ffffffffffffffffffffffffffffffffffffffff82169050919050565b5f6102e2826102b9565b9050919050565b6102f2816102d8565b82525050565b5f60208201905061030b5f8301846102e9565b92915050565b5f819050919050565b5f819050919050565b5f61033d61033861033384610311565b61031a565b61025b565b9050919050565b61034d81610323565b82525050565b5f6040820190506103665f8301856102e9565b6103736020830184610344565b9392505050565b6103838161025b565b82525050565b5f60408201905061039c5f8301856102e9565b6103a9602083018461037a565b939250505056fea26469706673582212209452a2c84450758c64bcd3f91cf35b36830c94dbc35f18834ce15e5e209b316464736f6c63430008180033",
		"opcodes": "PUSH1 0x80 PUSH1 0x40 MSTORE CALLVALUE DUP1 ISZERO PUSH2 0xF JUMPI PUSH0 DUP1 REVERT JUMPDEST POP PUSH2 0x3E6 DUP1 PUSH2 0x1D PUSH0 CODECOPY PUSH0 RETURN INVALID PUSH1 0x80 PUSH1 0x40 MSTORE PUSH1 0x4 CALLDATASIZE LT PUSH2 0x28 JUMPI PUSH0 CALLDATALOAD PUSH1 0xE0 SHR DUP1 PUSH4 0xE6650FC EQ PUSH2 0x2C JUMPI DUP1 PUSH4 0x2053BFE6 EQ PUSH2 0x54 JUMPI JUMPDEST PUSH0 DUP1 REVERT JUMPDEST CALLVALUE DUP1 ISZERO PUSH2 0x37 JUMPI PUSH0 DUP1 REVERT JUMPDEST POP PUSH2 0x52 PUSH1 0x4 DUP1 CALLDATASIZE SUB DUP2 ADD SWAP1 PUSH2 0x4D SWAP2 SWAP1 PUSH2 0x28E JUMP JUMPDEST PUSH2 0x72 JUMP JUMPDEST STOP JUMPDEST PUSH2 0x5C PUSH2 0x170 JUMP JUMPDEST PUSH1 0x40 MLOAD PUSH2 0x69 SWAP2 SWAP1 PUSH2 0x2F8 JUMP JUMPDEST PUSH1 0x40 MLOAD DUP1 SWAP2 SUB SWAP1 RETURN JUMPDEST PUSH0 JUMPDEST DUP2 DUP2 LT ISZERO PUSH2 0x11C JUMPI PUSH0 PUSH1 0x40 MLOAD PUSH32 0x60016000F3000000000000000000000000000000000000000000000000000000 DUP2 MSTORE PUSH1 0x5 DUP2 PUSH0 CREATE SWAP2 POP POP PUSH0 PUSH20 0xFFFFFFFFFFFFFFFFFFFFFFFFFFFFFFFFFFFFFFFF AND DUP2 PUSH20 0xFFFFFFFFFFFFFFFFFFFFFFFFFFFFFFFFFFFFFFFF AND SUB PUSH2 0x110 JUMPI PUSH1 0x40 MLOAD PUSH32 0x7E16B8CD00000000000000000000000000000000000000000000000000000000 DUP2 MSTORE PUSH1 0x4 ADD PUSH1 0x40 MLOAD DUP1 SWAP2 SUB SWAP1 REVERT JUMPDEST POP DUP1 PUSH1 0x1 ADD SWAP1 POP PUSH2 0x74 JUMP JUMPDEST POP CALLER PUSH20 0xFFFFFFFFFFFFFFFFFFFFFFFFFFFFFFFFFFFFFFFF AND PUSH32 0x3230B500197D8A9313B4A77C9E36F9679263F77AABC00BD822A8F59118860C51 PUSH0 DUP1 PUSH1 0x40 MLOAD PUSH2 0x165 SWAP3 SWAP2 SWAP1 PUSH2 0x353 JUMP JUMPDEST PUSH1 0x40 MLOAD DUP1 SWAP2 SUB SWAP1 LOG2 POP JUMP JUMPDEST PUSH0 PUSH1 0x40 MLOAD PUSH32 0x60016000F3000000000000000000000000000000000000000000000000000000 DUP2 MSTORE PUSH1 0x5 DUP2 CALLVALUE CREATE SWAP2 POP POP PUSH0 PUSH20 0xFFFFFFFFFFFFFFFFFFFFFFFFFFFFFFFFFFFFFFFF AND DUP2 PUSH20 0xFFFFFFFFFFFFFFFFFFFFFFFFFFFFFFFFFFFFFFFF AND SUB PUSH2 0x204 JUMPI PUSH1 0x40 MLOAD PUSH32 0x7E16B8CD00000000000000000000000000000000000000000000000000000000 DUP2 MSTORE PUSH1 0x4 ADD PUSH1 0x40 MLOAD DUP1 SWAP2 SUB SWAP1 REVERT JUMPDEST CALLER PUSH20 0xFFFFFFFFFFFFFFFFFFFFFFFFFFFFFFFFFFFFFFFF AND PUSH32 0x3230B500197D8A9313B4A77C9E36F9679263F77AABC00BD822A8F59118860C51 DUP3 CALLVALUE PUSH1 0x40 MLOAD PUSH2 0x24C SWAP3 SWAP2 SWAP1 PUSH2 0x389 JUMP JUMPDEST PUSH1 0x40 MLOAD DUP1 SWAP2 SUB SWAP1 LOG2 SWAP1 JUMP JUMPDEST PUSH0 DUP1 REVERT JUMPDEST PUSH0 DUP2 SWAP1 POP SWAP2 SWAP1 POP JUMP JUMPDEST PUSH2 0x26D DUP2 PUSH2 0x25B JUMP JUMPDEST DUP2 EQ PUSH2 0x277 JUMPI PUSH0 DUP1 REVERT JUMPDEST POP JUMP JUMPDEST PUSH0 DUP2 CALLDATALOAD SWAP1 POP PUSH2 0x288 DUP2 PUSH2 0x264 JUMP JUMPDEST SWAP3 SWAP2 POP POP JUMP JUMPDEST PUSH0 PUSH1 0x20 DUP3 DUP5 SUB SLT ISZERO PUSH2 0x2A3 JUMPI PUSH2 0x2A2 PUSH2 0x257 JUMP JUMPDEST JUMPDEST PUSH0 PUSH2 0x2B0 DUP5 DUP3 DUP6 ADD PUSH2 0x27A JUMP JUMPDEST SWAP2 POP POP SWAP3 SWAP2 POP POP JUMP JUMPDEST PUSH0 PUSH20 0xFFFFFFFFFFFFFFFFFFFFFFFFFFFFFFFFFFFFFFFF DUP3 AND SWAP1 POP SWAP2 SWAP1 POP JUMP JUMPDEST PUSH0 PUSH2 0x2E2 DUP3 PUSH2 0x2B9 JUMP JUMPDEST SWAP1 POP SWAP2 SWAP1 POP JUMP JUMPDEST PUSH2 0x2F2 DUP2 PUSH2 0x2D8 JUMP JUMPDEST DUP3 MSTORE POP POP JUMP JUMPDEST PUSH0 PUSH1 0x20 DUP3 ADD SWAP1 POP PUSH2 0x30B PUSH0 DUP4 ADD DUP5 PUSH2 0x2E9 JUMP JUMPDEST SWAP3 SWAP2 POP POP JUMP JUMPDEST PUSH0 DUP2 SWAP1 POP SWAP2 SWAP1 POP JUMP JUMPDEST PUSH0 DUP2 SWAP1 POP SWAP2 SWAP1 POP JUMP JUMPDEST PUSH0 PUSH2 0x33D PUSH2 0x338 PUSH2 0x333 DUP5 PUSH2 0x311 JUMP JUMPDEST PUSH2 0x31A JUMP JUMPDEST PUSH2 0x25B JUMP JUMPDEST SWAP1 POP SWAP2 SWAP1 POP JUMP JUMPDEST PUSH2 0x34D DUP2 PUSH2 0x323 JUMP JUMPDEST DUP3 MSTORE POP POP JUMP JUMPDEST PUSH0 PUSH1 0x40 DUP3 ADD SWAP1 POP PUSH2 0x366 PUSH0 DUP4 ADD DUP6 PUSH2 0x2E9 JUMP JUMPDEST PUSH2 0x373 PUSH1 0x20 DUP4 ADD DUP5 PUSH2 0x344 JUMP JUMPDEST SWAP4 SWAP3 POP POP POP JUMP JUMPDEST PUSH2 0x383 DUP2 PUSH2 0x25B JUMP JUMPDEST DUP3 MSTORE POP POP JUMP JUMPDEST PUSH0 PUSH1 0x40 DUP3 ADD SWAP1 POP PUSH2 0x39C PUSH0 DUP4 ADD DUP6 PUSH2 0x2E9 JUMP JUMPDEST PUSH2 0x3A9 PUSH1 0x20 DUP4 ADD DUP5 PUSH2 0x37A JUMP JUMPDEST SWAP4 SWAP3 POP POP POP JUMP INVALID LOG2 PUSH5 0x6970667358 0x22 SLT KECCAK256 SWAP5 MSTORE LOG2 0xC8 PREVRANDAO POP PUSH22 0x8C64BCD3F91CF35B36830C94DBC35F18834CE15E5E20 SWAP12 BALANCE PUSH5 0x64736F6C63 NUMBER STOP ADDMOD XOR STOP CALLER "
	},
	"abi": [
		{
			"inputs": [],
			"name": "CreateFailed",
			"type": "error"
		},
		{
			"anonymous": false,
			"inputs": [
				{
					"indexed": true,
					"internalType": "address",
					"name": "deployer",
					"type": "address"
				},
				{
					"indexed": false,
					"internalType": "address",
					"name": "child",
					"type": "address"
				},
				{
					"indexed": false,
					"internalType": "uint256",
					"name": "value",
					"type": "uint256"
				}
			],
			"name": "ChildDeployed",
			"type": "event"
		},
		{
			"inputs": [
				{
					"internalType": "uint256",
					"name": "n",
					"type": "uint256"
				}
			],
			"name": "deployBatch",
			"outputs": [],
			"stateMutability": "nonpayable",
			"type": "function"
		},
		{
			"inputs": [],
			"name": "deployChild",
			"outputs": [
				{
					"internalType": "address",
					"name": "child",
					"type": "address"
				}
			],
			"stateMutability": "payable",
			"type": "function"
		}
	],
	"storageLayout": {
		"storage": [],
		"types": null
	},
	"web3Deploy": "var voyagefactoryContract = new web3.eth.Contract([{\"inputs\":[],\"name\":\"CreateFailed\",\"type\":\"error\"},{\"anonymous\":false,\"inputs\":[{\"indexed\":true,\"internalType\":\"address\",\"name\":\"deployer\",\"type\":\"address\"},{\"indexed\":false,\"internalType\":\"address\",\"name\":\"child\",\"type\":\"address\"},{\"indexed\":false,\"internalType\":\"uint256\",\"name\":\"value\",\"type\":\"uint256\"}],\"name\":\"ChildDeployed\",\"type\":\"event\"},{\"inputs\":[{\"internalType\":\"uint256\",\"name\":\"n\",\"type\":\"uint256\"}],\"name\":\"deployBatch\",\"outputs\":[],\"stateMutability\":\"nonpayable\",\"type\":\"function\"},{\"inputs\":[],\"name\":\"deployChild\",\"outputs\":[{\"internalType\":\"address\",\"name\":\"child\",\"type\":\"address\"}],\"stateMutability\":\"payable\",\"type\":\"function\"}]);\nvar voyagefactory = voyagefactoryContract.deploy({\n     data: '0x608060405234801561000f575f80fd5b506103e68061001d5f395ff3fe608060405260043610610028575f3560e01c80630e6650fc1461002c5780632053bfe614610054575b5f80fd5b348015610037575f80fd5b50610052600480360381019061004d919061028e565b610072565b005b61005c610170565b60405161006991906102f8565b60405180910390f35b5f5b8181101561011c575f6040517f60016000f300000000000000000000000000000000000000000000000000000081526005815ff09150505f73ffffffffffffffffffffffffffffffffffffffff168173ffffffffffffffffffffffffffffffffffffffff1603610110576040517f7e16b8cd00000000000000000000000000000000000000000000000000000000815260040160405180910390fd5b50806001019050610074565b503373ffffffffffffffffffffffffffffffffffffffff167f3230b500197d8a9313b4a77c9e36f9679263f77aabc00bd822a8f59118860c515f80604051610165929190610353565b60405180910390a250565b5f6040517f60016000f3000000000000000000000000000000000000000000000000000000815260058134f09150505f73ffffffffffffffffffffffffffffffffffffffff168173ffffffffffffffffffffffffffffffffffffffff1603610204576040517f7e16b8cd00000000000000000000000000000000000000000000000000000000815260040160405180910390fd5b3373ffffffffffffffffffffffffffffffffffffffff167f3230b500197d8a9313b4a77c9e36f9679263f77aabc00bd822a8f59118860c51823460405161024c929190610389565b60405180910390a290565b5f80fd5b5f819050919050565b61026d8161025b565b8114610277575f80fd5b50565b5f8135905061028881610264565b92915050565b5f602082840312156102a3576102a2610257565b5b5f6102b08482850161027a565b91505092915050565b5f73ffffffffffffffffffffffffffffffffffffffff82169050919050565b5f6102e2826102b9565b9050919050565b6102f2816102d8565b82525050565b5f60208201905061030b5f8301846102e9565b92915050565b5f819050919050565b5f819050919050565b5f61033d61033861033384610311565b61031a565b61025b565b9050919050565b61034d81610323565b82525050565b5f6040820190506103665f8301856102e9565b6103736020830184610344565b9392505050565b6103838161025b565b82525050565b5f60408201905061039c5f8301856102e9565b6103a9602083018461037a565b939250505056fea26469706673582212209452a2c84450758c64bcd3f91cf35b36830c94dbc35f18834ce15e5e209b316464736f6c63430008180033', \n     arguments: [\n     ]\n}).send({\n     from: web3.eth.accounts[0], \n     gas: '4700000'\n   }, function (e, contract){\n    console.log(e, contract);\n    if (typeof contract.address !== 'undefined') {\n         console.log('Contract mined! address: ' + contract.address + ' transactionHash: ' + contract.transactionHash);\n    }\n })",
	"functionHashes": {
		"0e6650fc": "deployBatch(uint256)",
		"2053bfe6": "deployChild()"
	},
	"gasEstimates": {
		"Creation": {
			"codeDepositCost": "199600",
			"executionCost": "243",
			"totalCost": "199843"
		},
		"External": {
			"deployBatch(uint256)": "infinite",
			"deployChild()": "infinite"
		}
	},
	"devdoc": {
		"kind": "dev",
		"methods": {},
		"version": 1
	},
	"userdoc": {
		"kind": "user",
		"methods": {
			"deployBatch(uint256)": {
				"notice": "bounded batch deploy (no value forwarding)"
			},
			"deployChild()": {
				"notice": "deploy a single ultra-minimal child (runtime = 0x00)"
			}
		},
		"version": 1
	},
	"Runtime Bytecode": {
		"immutableReferences": {},
		"linkReferences": {},
		"object": "608060405260043610610028575f3560e01c80630e6650fc1461002c5780632053bfe614610054575b5f80fd5b348015610037575f80fd5b50610052600480360381019061004d919061028e565b610072565b005b61005c610170565b60405161006991906102f8565b60405180910390f35b5f5b8181101561011c575f6040517f60016000f300000000000000000000000000000000000000000000000000000081526005815ff09150505f73ffffffffffffffffffffffffffffffffffffffff168173ffffffffffffffffffffffffffffffffffffffff1603610110576040517f7e16b8cd00000000000000000000000000000000000000000000000000000000815260040160405180910390fd5b50806001019050610074565b503373ffffffffffffffffffffffffffffffffffffffff167f3230b500197d8a9313b4a77c9e36f9679263f77aabc00bd822a8f59118860c515f80604051610165929190610353565b60405180910390a250565b5f6040517f60016000f3000000000000000000000000000000000000000000000000000000815260058134f09150505f73ffffffffffffffffffffffffffffffffffffffff168173ffffffffffffffffffffffffffffffffffffffff1603610204576040517f7e16b8cd00000000000000000000000000000000000000000000000000000000815260040160405180910390fd5b3373ffffffffffffffffffffffffffffffffffffffff167f3230b500197d8a9313b4a77c9e36f9679263f77aabc00bd822a8f59118860c51823460405161024c929190610389565b60405180910390a290565b5f80fd5b5f819050919050565b61026d8161025b565b8114610277575f80fd5b50565b5f8135905061028881610264565b92915050565b5f602082840312156102a3576102a2610257565b5b5f6102b08482850161027a565b91505092915050565b5f73ffffffffffffffffffffffffffffffffffffffff82169050919050565b5f6102e2826102b9565b9050919050565b6102f2816102d8565b82525050565b5f60208201905061030b5f8301846102e9565b92915050565b5f819050919050565b5f819050919050565b5f61033d61033861033384610311565b61031a565b61025b565b9050919050565b61034d81610323565b82525050565b5f6040820190506103665f8301856102e9565b6103736020830184610344565b9392505050565b6103838161025b565b82525050565b5f60408201905061039c5f8301856102e9565b6103a9602083018461037a565b939250505056fea26469706673582212209452a2c84450758c64bcd3f91cf35b36830c94dbc35f18834ce15e5e209b316464736f6c63430008180033",
		"opcodes": "PUSH1 0x80 PUSH1 0x40 MSTORE PUSH1 0x4 CALLDATASIZE LT PUSH2 0x28 JUMPI PUSH0 CALLDATALOAD PUSH1 0xE0 SHR DUP1 PUSH4 0xE6650FC EQ PUSH2 0x2C JUMPI DUP1 PUSH4 0x2053BFE6 EQ PUSH2 0x54 JUMPI JUMPDEST PUSH0 DUP1 REVERT JUMPDEST CALLVALUE DUP1 ISZERO PUSH2 0x37 JUMPI PUSH0 DUP1 REVERT JUMPDEST POP PUSH2 0x52 PUSH1 0x4 DUP1 CALLDATASIZE SUB DUP2 ADD SWAP1 PUSH2 0x4D SWAP2 SWAP1 PUSH2 0x28E JUMP JUMPDEST PUSH2 0x72 JUMP JUMPDEST STOP JUMPDEST PUSH2 0x5C PUSH2 0x170 JUMP JUMPDEST PUSH1 0x40 MLOAD PUSH2 0x69 SWAP2 SWAP1 PUSH2 0x2F8 JUMP JUMPDEST PUSH1 0x40 MLOAD DUP1 SWAP2 SUB SWAP1 RETURN JUMPDEST PUSH0 JUMPDEST DUP2 DUP2 LT ISZERO PUSH2 0x11C JUMPI PUSH0 PUSH1 0x40 MLOAD PUSH32 0x60016000F3000000000000000000000000000000000000000000000000000000 DUP2 MSTORE PUSH1 0x5 DUP2 PUSH0 CREATE SWAP2 POP POP PUSH0 PUSH20 0xFFFFFFFFFFFFFFFFFFFFFFFFFFFFFFFFFFFFFFFF AND DUP2 PUSH20 0xFFFFFFFFFFFFFFFFFFFFFFFFFFFFFFFFFFFFFFFF AND SUB PUSH2 0x110 JUMPI PUSH1 0x40 MLOAD PUSH32 0x7E16B8CD00000000000000000000000000000000000000000000000000000000 DUP2 MSTORE PUSH1 0x4 ADD PUSH1 0x40 MLOAD DUP1 SWAP2 SUB SWAP1 REVERT JUMPDEST POP DUP1 PUSH1 0x1 ADD SWAP1 POP PUSH2 0x74 JUMP JUMPDEST POP CALLER PUSH20 0xFFFFFFFFFFFFFFFFFFFFFFFFFFFFFFFFFFFFFFFF AND PUSH32 0x3230B500197D8A9313B4A77C9E36F9679263F77AABC00BD822A8F59118860C51 PUSH0 DUP1 PUSH1 0x40 MLOAD PUSH2 0x165 SWAP3 SWAP2 SWAP1 PUSH2 0x353 JUMP JUMPDEST PUSH1 0x40 MLOAD DUP1 SWAP2 SUB SWAP1 LOG2 POP JUMP JUMPDEST PUSH0 PUSH1 0x40 MLOAD PUSH32 0x60016000F3000000000000000000000000000000000000000000000000000000 DUP2 MSTORE PUSH1 0x5 DUP2 CALLVALUE CREATE SWAP2 POP POP PUSH0 PUSH20 0xFFFFFFFFFFFFFFFFFFFFFFFFFFFFFFFFFFFFFFFF AND DUP2 PUSH20 0xFFFFFFFFFFFFFFFFFFFFFFFFFFFFFFFFFFFFFFFF AND SUB PUSH2 0x204 JUMPI PUSH1 0x40 MLOAD PUSH32 0x7E16B8CD00000000000000000000000000000000000000000000000000000000 DUP2 MSTORE PUSH1 0x4 ADD PUSH1 0x40 MLOAD DUP1 SWAP2 SUB SWAP1 REVERT JUMPDEST CALLER PUSH20 0xFFFFFFFFFFFFFFFFFFFFFFFFFFFFFFFFFFFFFFFF AND PUSH32 0x3230B500197D8A9313B4A77C9E36F9679263F77AABC00BD822A8F59118860C51 DUP3 CALLVALUE PUSH1 0x40 MLOAD PUSH2 0x24C SWAP3 SWAP2 SWAP1 PUSH2 0x389 JUMP JUMPDEST PUSH1 0x40 MLOAD DUP1 SWAP2 SUB SWAP1 LOG2 SWAP1 JUMP JUMPDEST PUSH0 DUP1 REVERT JUMPDEST PUSH0 DUP2 SWAP1 POP SWAP2 SWAP1 POP JUMP JUMPDEST PUSH2 0x26D DUP2 PUSH2 0x25B JUMP JUMPDEST DUP2 EQ PUSH2 0x277 JUMPI PUSH0 DUP1 REVERT JUMPDEST POP JUMP JUMPDEST PUSH0 DUP2 CALLDATALOAD SWAP1 POP PUSH2 0x288 DUP2 PUSH2 0x264 JUMP JUMPDEST SWAP3 SWAP2 POP POP JUMP JUMPDEST PUSH0 PUSH1 0x20 DUP3 DUP5 SUB SLT ISZERO PUSH2 0x2A3 JUMPI PUSH2 0x2A2 PUSH2 0x257 JUMP JUMPDEST JUMPDEST PUSH0 PUSH2 0x2B0 DUP5 DUP3 DUP6 ADD PUSH2 0x27A JUMP JUMPDEST SWAP2 POP POP SWAP3 SWAP2 POP POP JUMP JUMPDEST PUSH0 PUSH20 0xFFFFFFFFFFFFFFFFFFFFFFFFFFFFFFFFFFFFFFFF DUP3 AND SWAP1 POP SWAP2 SWAP1 POP JUMP JUMPDEST PUSH0 PUSH2 0x2E2 DUP3 PUSH2 0x2B9 JUMP JUMPDEST SWAP1 POP SWAP2 SWAP1 POP JUMP JUMPDEST PUSH2 0x2F2 DUP2 PUSH2 0x2D8 JUMP JUMPDEST DUP3 MSTORE POP POP JUMP JUMPDEST PUSH0 PUSH1 0x20 DUP3 ADD SWAP1 POP PUSH2 0x30B PUSH0 DUP4 ADD DUP5 PUSH2 0x2E9 JUMP JUMPDEST SWAP3 SWAP2 POP POP JUMP JUMPDEST PUSH0 DUP2 SWAP1 POP SWAP2 SWAP1 POP JUMP JUMPDEST PUSH0 DUP2 SWAP1 POP SWAP2 SWAP1 POP JUMP JUMPDEST PUSH0 PUSH2 0x33D PUSH2 0x338 PUSH2 0x333 DUP5 PUSH2 0x311 JUMP JUMPDEST PUSH2 0x31A JUMP JUMPDEST PUSH2 0x25B JUMP JUMPDEST SWAP1 POP SWAP2 SWAP1 POP JUMP JUMPDEST PUSH2 0x34D DUP2 PUSH2 0x323 JUMP JUMPDEST DUP3 MSTORE POP POP JUMP JUMPDEST PUSH0 PUSH1 0x40 DUP3 ADD SWAP1 POP PUSH2 0x366 PUSH0 DUP4 ADD DUP6 PUSH2 0x2E9 JUMP JUMPDEST PUSH2 0x373 PUSH1 0x20 DUP4 ADD DUP5 PUSH2 0x344 JUMP JUMPDEST SWAP4 SWAP3 POP POP POP JUMP JUMPDEST PUSH2 0x383 DUP2 PUSH2 0x25B JUMP JUMPDEST DUP3 MSTORE POP POP JUMP JUMPDEST PUSH0 PUSH1 0x40 DUP3 ADD SWAP1 POP PUSH2 0x39C PUSH0 DUP4 ADD DUP6 PUSH2 0x2E9 JUMP JUMPDEST PUSH2 0x3A9 PUSH1 0x20 DUP4 ADD DUP5 PUSH2 0x37A JUMP JUMPDEST SWAP4 SWAP3 POP POP POP JUMP INVALID LOG2 PUSH5 0x6970667358 0x22 SLT KECCAK256 SWAP5 MSTORE LOG2 0xC8 PREVRANDAO POP PUSH22 0x8C64BCD3F91CF35B36830C94DBC35F18834CE15E5E20 SWAP12 BALANCE PUSH5 0x64736F6C63 NUMBER STOP ADDMOD XOR STOP CALLER "
	},
	"Assembly": ".code\n  PUSH 80\t\t\tcontract VoyageFactory {\\r\\n  ...\n  PUSH 40\t\t\tcontract VoyageFactory {\\r\\n  ...\n  MSTORE \t\t\tcontract VoyageFactory {\\r\\n  ...\n  CALLVALUE \t\t\tcontract VoyageFactory {\\r\\n  ...\n  DUP1 \t\t\tcontract VoyageFactory {\\r\\n  ...\n  ISZERO \t\t\tcontract VoyageFactory {\\r\\n  ...\n  PUSH [tag] 1\t\t\tcontract VoyageFactory {\\r\\n  ...\n  JUMPI \t\t\tcontract VoyageFactory {\\r\\n  ...\n  PUSH 0\t\t\tcontract VoyageFactory {\\r\\n  ...\n  DUP1 \t\t\tcontract VoyageFactory {\\r\\n  ...\n  REVERT \t\t\tcontract VoyageFactory {\\r\\n  ...\ntag 1\t\t\tcontract VoyageFactory {\\r\\n  ...\n  JUMPDEST \t\t\tcontract VoyageFactory {\\r\\n  ...\n  POP \t\t\tcontract VoyageFactory {\\r\\n  ...\n  PUSH #[$] 0000000000000000000000000000000000000000000000000000000000000000\t\t\tcontract VoyageFactory {\\r\\n  ...\n  DUP1 \t\t\tcontract VoyageFactory {\\r\\n  ...\n  PUSH [$] 0000000000000000000000000000000000000000000000000000000000000000\t\t\tcontract VoyageFactory {\\r\\n  ...\n  PUSH 0\t\t\tcontract VoyageFactory {\\r\\n  ...\n  CODECOPY \t\t\tcontract VoyageFactory {\\r\\n  ...\n  PUSH 0\t\t\tcontract VoyageFactory {\\r\\n  ...\n  RETURN \t\t\tcontract VoyageFactory {\\r\\n  ...\n.data\n  0:\n    .code\n      PUSH 80\t\t\tcontract VoyageFactory {\\r\\n  ...\n      PUSH 40\t\t\tcontract VoyageFactory {\\r\\n  ...\n      MSTORE \t\t\tcontract VoyageFactory {\\r\\n  ...\n      PUSH 4\t\t\tcontract VoyageFactory {\\r\\n  ...\n      CALLDATASIZE \t\t\tcontract VoyageFactory {\\r\\n  ...\n      LT \t\t\tcontract VoyageFactory {\\r\\n  ...\n      PUSH [tag] 1\t\t\tcontract VoyageFactory {\\r\\n  ...\n      JUMPI \t\t\tcontract VoyageFactory {\\r\\n  ...\n      PUSH 0\t\t\tcontract VoyageFactory {\\r\\n  ...\n      CALLDATALOAD \t\t\tcontract VoyageFactory {\\r\\n  ...\n      PUSH E0\t\t\tcontract VoyageFactory {\\r\\n  ...\n      SHR \t\t\tcontract VoyageFactory {\\r\\n  ...\n      DUP1 \t\t\tcontract VoyageFactory {\\r\\n  ...\n      PUSH E6650FC\t\t\tcontract VoyageFactory {\\r\\n  ...\n      EQ \t\t\tcontract VoyageFactory {\\r\\n  ...\n      PUSH [tag] 2\t\t\tcontract VoyageFactory {\\r\\n  ...\n      JUMPI \t\t\tcontract VoyageFactory {\\r\\n  ...\n      DUP1 \t\t\tcontract VoyageFactory {\\r\\n  ...\n      PUSH 2053BFE6\t\t\tcontract VoyageFactory {\\r\\n  ...\n      EQ \t\t\tcontract VoyageFactory {\\r\\n  ...\n      PUSH [tag] 3\t\t\tcontract VoyageFactory {\\r\\n  ...\n      JUMPI \t\t\tcontract VoyageFactory {\\r\\n  ...\n    tag 1\t\t\tcontract VoyageFactory {\\r\\n  ...\n      JUMPDEST \t\t\tcontract VoyageFactory {\\r\\n  ...\n      PUSH 0\t\t\tcontract VoyageFactory {\\r\\n  ...\n      DUP1 \t\t\tcontract VoyageFactory {\\r\\n  ...\n      REVERT \t\t\tcontract VoyageFactory {\\r\\n  ...\n    tag 2\t\t\tnction deployBatch(uint256 n) ...\n      JUMPDEST \t\t\tnction deployBatch(uint256 n) ...\n      CALLVALUE \t\t\tnction deployBatch(uint256 n) ...\n      DUP1 \t\t\tnction deployBatch(uint256 n) ...\n      ISZERO \t\t\tnction deployBatch(uint256 n) ...\n      PUSH [tag] 4\t\t\tnction deployBatch(uint256 n) ...\n      JUMPI \t\t\tnction deployBatch(uint256 n) ...\n      PUSH 0\t\t\tnction deployBatch(uint256 n) ...\n      DUP1 \t\t\tnction deployBatch(uint256 n) ...\n      REVERT \t\t\tnction deployBatch(uint256 n) ...\n    tag 4\t\t\tnction deployBatch(uint256 n) ...\n      JUMPDEST \t\t\tnction deployBatch(uint256 n) ...\n      POP \t\t\tnction deployBatch(uint256 n) ...\n      PUSH [tag] 5\t\t\tnction deployBatch(uint256 n) ...\n      PUSH 4\t\t\tnction deployBatch(uint256 n) ...\n      DUP1 \t\t\tnction deployBatch(uint256 n) ...\n      CALLDATASIZE \t\t\tnction deployBatch(uint256 n) ...\n      SUB \t\t\tnction deployBatch(uint256 n) ...\n      DUP2 \t\t\tnction deployBatch(uint256 n) ...\n      ADD \t\t\tnction deployBatch(uint256 n) ...\n      SWAP1 \t\t\tnction deployBatch(uint256 n) ...\n      PUSH [tag] 6\t\t\tnction deployBatch(uint256 n) ...\n      SWAP2 \t\t\tnction deployBatch(uint256 n) ...\n      SWAP1 \t\t\tnction deployBatch(uint256 n) ...\n      PUSH [tag] 7\t\t\tnction deployBatch(uint256 n) ...\n      JUMP \t\t\tnction deployBatch(uint256 n) ...\n    tag 6\t\t\tnction deployBatch(uint256 n) ...\n      JUMPDEST \t\t\tnction deployBatch(uint256 n) ...\n      PUSH [tag] 8\t\t\tnction deployBatch(uint256 n) ...\n      JUMP \t\t\tnction deployBatch(uint256 n) ...\n    tag 5\t\t\tnction deployBatch(uint256 n) ...\n      JUMPDEST \t\t\tnction deployBatch(uint256 n) ...\n      STOP \t\t\tnction deployBatch(uint256 n) ...\n    tag 3\t\t\tfunction deployChild() externa...\n      JUMPDEST \t\t\tfunction deployChild() externa...\n      PUSH [tag] 9\t\t\tfunction deployChild() externa...\n      PUSH [tag] 10\t\t\tfunction deployChild() externa...\n      JUMP \t\t\tfunction deployChild() externa...\n    tag 9\t\t\tfunction deployChild() externa...\n      JUMPDEST \t\t\tfunction deployChild() externa...\n      PUSH 40\t\t\tfunction deployChild() externa...\n      MLOAD \t\t\tfunction deployChild() externa...\n      PUSH [tag] 11\t\t\tfunction deployChild() externa...\n      SWAP2 \t\t\tfunction deployChild() externa...\n      SWAP1 \t\t\tfunction deployChild() externa...\n      PUSH [tag] 12\t\t\tfunction deployChild() externa...\n      JUMP \t\t\tfunction deployChild() externa...\n    tag 11\t\t\tfunction deployChild() externa...\n      JUMPDEST \t\t\tfunction deployChild() externa...\n      PUSH 40\t\t\tfunction deployChild() externa...\n      MLOAD \t\t\tfunction deployChild() externa...\n      DUP1 \t\t\tfunction deployChild() externa...\n      SWAP2 \t\t\tfunction deployChild() externa...\n      SUB \t\t\tfunction deployChild() externa...\n      SWAP1 \t\t\tfunction deployChild() externa...\n      RETURN \t\t\tfunction deployChild() externa...\n    tag 8\t\t\tnction deployBatch(uint256 n) ...\n      JUMPDEST \t\t\tnction deployBatch(uint256 n) ...\n      PUSH 0\t\t\tnt256 i =\n    tag 14\t\t\tr (uint256 i = 0; i < n; ++i) ...\n      JUMPDEST \t\t\tr (uint256 i = 0; i < n; ++i) ...\n      DUP2 \t\t\t \n      DUP2 \t\t\t<\n      LT \t\t\t< n; \n      ISZERO \t\t\tr (uint256 i = 0; i < n; ++i) ...\n      PUSH [tag] 15\t\t\tr (uint256 i = 0; i < n; ++i) ...\n      JUMPI \t\t\tr (uint256 i = 0; i < n; ++i) ...\n      PUSH 0\t\t\tdress child;\\r\n      PUSH 40\t\t\t40)\\r\n      MLOAD \t\t\toad(0x40)\\r\\n\n      PUSH 60016000F3000000000000000000000000000000000000000000000000000000\t\t\t60016000f300000000000000000000...\n      DUP2 \t\t\tr, \n      MSTORE \t\t\ttore(ptr, 0x60016000f300000000...\n      PUSH 5\t\t\t\\r\n      DUP2 \t\t\tr, \n      PUSH 0\t\t\t \n      CREATE \t\t\teate(0, ptr, 5)\\r\\n\n      SWAP2 \t\t\tild := create(0, ptr, 5)\\r\\n\n      POP \t\t\tild := create(0, ptr, 5)\\r\\n\n      POP \t\t\t\\n                    let ptr ...\n      PUSH 0\t\t\t)\n      PUSH FFFFFFFFFFFFFFFFFFFFFFFFFFFFFFFFFFFFFFFF\t\t\tild == address(0)) \n      AND \t\t\tild == address(0)) \n      DUP2 \t\t\tild =\n      PUSH FFFFFFFFFFFFFFFFFFFFFFFFFFFFFFFFFFFFFFFF\t\t\tild == address(0)) \n      AND \t\t\tild == address(0)) \n      SUB \t\t\tild == address(0)) \n      PUSH [tag] 17\t\t\t (child == address(0)) revert ...\n      JUMPI \t\t\t (child == address(0)) revert ...\n      PUSH 40\t\t\teateFailed();\\r\n      MLOAD \t\t\teateFailed();\\r\n      PUSH 7E16B8CD00000000000000000000000000000000000000000000000000000000\t\t\teateFailed();\\r\n      DUP2 \t\t\teateFailed();\\r\n      MSTORE \t\t\teateFailed();\\r\n      PUSH 4\t\t\teateFailed();\\r\n      ADD \t\t\teateFailed();\\r\n      PUSH 40\t\t\teateFailed();\\r\n      MLOAD \t\t\teateFailed();\\r\n      DUP1 \t\t\teateFailed();\\r\n      SWAP2 \t\t\teateFailed();\\r\n      SUB \t\t\teateFailed();\\r\n      SWAP1 \t\t\teateFailed();\\r\n      REVERT \t\t\teateFailed();\\r\n    tag 17\t\t\t (child == address(0)) revert ...\n      JUMPDEST \t\t\t (child == address(0)) revert ...\n      POP \t\t\t\\n                address chil...\n      DUP1 \t\t\ti) \n      PUSH 1\t\t\ti) \n      ADD \t\t\ti) \n      SWAP1 \t\t\ti) \n      POP \t\t\ti) \n      PUSH [tag] 14\t\t\tr (uint256 i = 0; i < n; ++i) ...\n      JUMP \t\t\tr (uint256 i = 0; i < n; ++i) ...\n    tag 15\t\t\tr (uint256 i = 0; i < n; ++i) ...\n      JUMPDEST \t\t\tr (uint256 i = 0; i < n; ++i) ...\n      POP \t\t\tr (uint256 i = 0; i < n; ++i) ...\n      CALLER \t\t\tg.sender, \n      PUSH FFFFFFFFFFFFFFFFFFFFFFFFFFFFFFFFFFFFFFFF\t\t\tildDeployed(msg.sender, addres...\n      AND \t\t\tildDeployed(msg.sender, addres...\n      PUSH 3230B500197D8A9313B4A77C9E36F9679263F77AABC00BD822A8F59118860C51\t\t\tildDeployed(msg.sender, addres...\n      PUSH 0\t\t\t,\n      DUP1 \t\t\t;\n      PUSH 40\t\t\tildDeployed(msg.sender, addres...\n      MLOAD \t\t\tildDeployed(msg.sender, addres...\n      PUSH [tag] 18\t\t\tildDeployed(msg.sender, addres...\n      SWAP3 \t\t\tildDeployed(msg.sender, addres...\n      SWAP2 \t\t\tildDeployed(msg.sender, addres...\n      SWAP1 \t\t\tildDeployed(msg.sender, addres...\n      PUSH [tag] 19\t\t\tildDeployed(msg.sender, addres...\n      JUMP \t\t\tildDeployed(msg.sender, addres...\n    tag 18\t\t\tildDeployed(msg.sender, addres...\n      JUMPDEST \t\t\tildDeployed(msg.sender, addres...\n      PUSH 40\t\t\tildDeployed(msg.sender, addres...\n      MLOAD \t\t\tildDeployed(msg.sender, addres...\n      DUP1 \t\t\tildDeployed(msg.sender, addres...\n      SWAP2 \t\t\tildDeployed(msg.sender, addres...\n      SUB \t\t\tildDeployed(msg.sender, addres...\n      SWAP1 \t\t\tildDeployed(msg.sender, addres...\n      LOG2 \t\t\tildDeployed(msg.sender, addres...\n      POP \t\t\tnction deployBatch(uint256 n) ...\n      JUMP \t\t\tnction deployBatch(uint256 n) ...\n    tag 10\t\t\tfunction deployChild() externa...\n      JUMPDEST \t\t\tfunction deployChild() externa...\n      PUSH 0\t\t\taddress child\n      PUSH 40\t\t\t0x40\n      MLOAD \t\t\tmload(0x40)\n      PUSH 60016000F3000000000000000000000000000000000000000000000000000000\t\t\t0x60016000f3000000000000000000...\n      DUP2 \t\t\tptr\n      MSTORE \t\t\tmstore(ptr, 0x60016000f3000000...\n      PUSH 5\t\t\t\\r\n      DUP2 \t\t\tr, \n      CALLVALUE \t\t\tllvalue(), \n      CREATE \t\t\teate(callvalue(), ptr, 5)\\r\\n\n      SWAP2 \t\t\tild := create(callvalue(), ptr...\n      POP \t\t\tild := create(callvalue(), ptr...\n      POP \t\t\t{\\r\\n            let ptr := ml...\n      PUSH 0\t\t\t)\n      PUSH FFFFFFFFFFFFFFFFFFFFFFFFFFFFFFFFFFFFFFFF\t\t\tild == address(0)) \n      AND \t\t\tild == address(0)) \n      DUP2 \t\t\tild =\n      PUSH FFFFFFFFFFFFFFFFFFFFFFFFFFFFFFFFFFFFFFFF\t\t\tild == address(0)) \n      AND \t\t\tild == address(0)) \n      SUB \t\t\tild == address(0)) \n      PUSH [tag] 21\t\t\t (child == address(0)) revert ...\n      JUMPI \t\t\t (child == address(0)) revert ...\n      PUSH 40\t\t\teateFailed();\\r\n      MLOAD \t\t\teateFailed();\\r\n      PUSH 7E16B8CD00000000000000000000000000000000000000000000000000000000\t\t\teateFailed();\\r\n      DUP2 \t\t\teateFailed();\\r\n      MSTORE \t\t\teateFailed();\\r\n      PUSH 4\t\t\teateFailed();\\r\n      ADD \t\t\teateFailed();\\r\n      PUSH 40\t\t\teateFailed();\\r\n      MLOAD \t\t\teateFailed();\\r\n      DUP1 \t\t\teateFailed();\\r\n      SWAP2 \t\t\teateFailed();\\r\n      SUB \t\t\teateFailed();\\r\n      SWAP1 \t\t\teateFailed();\\r\n      REVERT \t\t\teateFailed();\\r\n    tag 21\t\t\t (child == address(0)) revert ...\n      JUMPDEST \t\t\t (child == address(0)) revert ...\n      CALLER \t\t\tg.sender, \n      PUSH FFFFFFFFFFFFFFFFFFFFFFFFFFFFFFFFFFFFFFFF\t\t\tildDeployed(msg.sender, child,...\n      AND \t\t\tildDeployed(msg.sender, child,...\n      PUSH 3230B500197D8A9313B4A77C9E36F9679263F77AABC00BD822A8F59118860C51\t\t\tildDeployed(msg.sender, child,...\n      DUP3 \t\t\tild, \n      CALLVALUE \t\t\tg.value);\n      PUSH 40\t\t\tildDeployed(msg.sender, child,...\n      MLOAD \t\t\tildDeployed(msg.sender, child,...\n      PUSH [tag] 22\t\t\tildDeployed(msg.sender, child,...\n      SWAP3 \t\t\tildDeployed(msg.sender, child,...\n      SWAP2 \t\t\tildDeployed(msg.sender, child,...\n      SWAP1 \t\t\tildDeployed(msg.sender, child,...\n      PUSH [tag] 23\t\t\tildDeployed(msg.sender, child,...\n      JUMP \t\t\tildDeployed(msg.sender, child,...\n    tag 22\t\t\tildDeployed(msg.sender, child,...\n      JUMPDEST \t\t\tildDeployed(msg.sender, child,...\n      PUSH 40\t\t\tildDeployed(msg.sender, child,...\n      MLOAD \t\t\tildDeployed(msg.sender, child,...\n      DUP1 \t\t\tildDeployed(msg.sender, child,...\n      SWAP2 \t\t\tildDeployed(msg.sender, child,...\n      SUB \t\t\tildDeployed(msg.sender, child,...\n      SWAP1 \t\t\tildDeployed(msg.sender, child,...\n      LOG2 \t\t\tildDeployed(msg.sender, child,...\n      SWAP1 \t\t\tfunction deployChild() externa...\n      JUMP \t\t\tfunction deployChild() externa...\n    tag 25\t\t\t   event ChildDeployed(address...\n      JUMPDEST \t\t\t   event ChildDeployed(address...\n      PUSH 0\t\t\t\\n\n      DUP1 \t\t\t\\r\n      REVERT \t\t\tiled();\\r\\n\\r\\n \n    tag 27\t\t\t) {\\r\\n        assembly {\\r\\n ...\n      JUMPDEST \t\t\t) {\\r\\n        assembly {\\r\\n ...\n      PUSH 0\t\t\tlet ptr\n      DUP2 \t\t\t     \n      SWAP1 \t\t\tx40)\\r\\n\\r\\n        \n      POP \t\t\tx40)\\r\\n\\r\\n        \n      SWAP2 \t\t\t) {\\r\\n        assembly {\\r\\n ...\n      SWAP1 \t\t\t) {\\r\\n        assembly {\\r\\n ...\n      POP \t\t\t) {\\r\\n        assembly {\\r\\n ...\n      JUMP \t\t\t) {\\r\\n        assembly {\\r\\n ...\n    tag 28\t\t\t the 5-byte initcode:\\r\\n     ...\n      JUMPDEST \t\t\t the 5-byte initcode:\\r\\n     ...\n      PUSH [tag] 44\t\t\tSH1 0x01  | return 1 byt\n      DUP2 \t\t\t 1 by\n      PUSH [tag] 27\t\t\tSH1 0x01  | return 1 byt\n      JUMP \t\t\tSH1 0x01  | return 1 byt\n    tag 44\t\t\tSH1 0x01  | return 1 byt\n      JUMPDEST \t\t\tSH1 0x01  | return 1 byt\n      DUP2 \t\t\t  // \n      EQ \t\t\t     // PUSH1 0x01  | return 1...\n      PUSH [tag] 45\t\t\t3\\r\\n            // PUSH1 0x01...\n      JUMPI \t\t\t3\\r\\n            // PUSH1 0x01...\n      PUSH 0\t\t\t \n      DUP1 \t\t\t \n      REVERT \t\t\t            \n    tag 45\t\t\t3\\r\\n            // PUSH1 0x01...\n      JUMPDEST \t\t\t3\\r\\n            // PUSH1 0x01...\n      POP \t\t\t the 5-byte initcode:\\r\\n     ...\n      JUMP \t\t\t the 5-byte initcode:\\r\\n     ...\n    tag 29\t\t\t | from memory position 0 |\\r\\...\n      JUMPDEST \t\t\t | from memory position 0 |\\r\\...\n      PUSH 0\t\t\tTURN\\r\n      DUP2 \t\t\t00f300\n      CALLDATALOAD \t\t\tptr, 0x60016000f3000\n      SWAP1 \t\t\t  mstore(ptr, 0x60016000f3000\n      POP \t\t\t  mstore(ptr, 0x60016000f3000\n      PUSH [tag] 47\t\t\t000000000000000000000000000000...\n      DUP2 \t\t\t00000\n      PUSH [tag] 28\t\t\t000000000000000000000000000000...\n      JUMP \t\t\t000000000000000000000000000000...\n    tag 47\t\t\t000000000000000000000000000000...\n      JUMPDEST \t\t\t000000000000000000000000000000...\n      SWAP3 \t\t\t | from memory position 0 |\\r\\...\n      SWAP2 \t\t\t | from memory position 0 |\\r\\...\n      POP \t\t\t | from memory position 0 |\\r\\...\n      POP \t\t\t | from memory position 0 |\\r\\...\n      JUMP \t\t\t | from memory position 0 |\\r\\...\n    tag 7\t\t\t            // ↑ padded to 32 ...\n      JUMPDEST \t\t\t            // ↑ padded to 32 ...\n      PUSH 0\t\t\t     /\n      PUSH 20\t\t\til\n      DUP3 \t\t\t         \n      DUP5 \t\t\tr, 5)\\r\\n\n      SUB \t\t\t, ptr, 5)\\r\\n            \n      SLT \t\t\talue, ptr, 5)\\r\\n            c...\n      ISZERO \t\t\tg.value, ptr, 5)\\r\\n          ...\n      PUSH [tag] 49\t\t\tg.value, ptr, 5)\\r\\n          ...\n      JUMPI \t\t\tg.value, ptr, 5)\\r\\n          ...\n      PUSH [tag] 50\t\t\t create(callvalue(), ptr, 5)\\r...\n      PUSH [tag] 25\t\t\t create(callvalue(), ptr, 5)\\r...\n      JUMP \t\t\t create(callvalue(), ptr, 5)\\r...\n    tag 50\t\t\t create(callvalue(), ptr, 5)\\r...\n      JUMPDEST \t\t\t create(callvalue(), ptr, 5)\\r...\n    tag 49\t\t\tg.value, ptr, 5)\\r\\n          ...\n      JUMPDEST \t\t\tg.value, ptr, 5)\\r\\n          ...\n      PUSH 0\t\t\to\n      PUSH [tag] 51\t\t\tsg.value);\\r\\n    }\\r\\n\\r\\n   ...\n      DUP5 \t\t\tbatch d\n      DUP3 \t\t\t bound\n      DUP6 \t\t\t/// @noti\n      ADD \t\t\t    /// @notice bounde\n      PUSH [tag] 29\t\t\tsg.value);\\r\\n    }\\r\\n\\r\\n   ...\n      JUMP \t\t\tsg.value);\\r\\n    }\\r\\n\\r\\n   ...\n    tag 51\t\t\tsg.value);\\r\\n    }\\r\\n\\r\\n   ...\n      JUMPDEST \t\t\tsg.value);\\r\\n    }\\r\\n\\r\\n   ...\n      SWAP2 \t\t\t, child, msg.value);\\r\\n    }\\...\n      POP \t\t\t, child, msg.value);\\r\\n    }\\...\n      POP \t\t\ted();\\r\\n        emit ChildDep...\n      SWAP3 \t\t\t            // ↑ padded to 32 ...\n      SWAP2 \t\t\t            // ↑ padded to 32 ...\n      POP \t\t\t            // ↑ padded to 32 ...\n      POP \t\t\t            // ↑ padded to 32 ...\n      JUMP \t\t\t            // ↑ padded to 32 ...\n    tag 30\t\t\tng)\\r\\n    function deployBatc...\n      JUMPDEST \t\t\tng)\\r\\n    function deployBatc...\n      PUSH 0\t\t\t n) ext\n      PUSH FFFFFFFFFFFFFFFFFFFFFFFFFFFFFFFFFFFFFFFF\t\t\t         for (uint256 i = 0; i...\n      DUP3 \t\t\t {\\r\\n \n      AND \t\t\tcked {\\r\\n            for (uin...\n      SWAP1 \t\t\t      unchecked {\\r\\n         ...\n      POP \t\t\t      unchecked {\\r\\n         ...\n      SWAP2 \t\t\tng)\\r\\n    function deployBatc...\n      SWAP1 \t\t\tng)\\r\\n    function deployBatc...\n      POP \t\t\tng)\\r\\n    function deployBatc...\n      JUMP \t\t\tng)\\r\\n    function deployBatc...\n    tag 31\t\t\t     address child;\\r\\n       ...\n      JUMPDEST \t\t\t     address child;\\r\\n       ...\n      PUSH 0\t\t\tassembl\n      PUSH [tag] 54\t\t\t   let ptr := mload(0x40\n      DUP3 \t\t\td(0x4\n      PUSH [tag] 30\t\t\t   let ptr := mload(0x40\n      JUMP \t\t\t   let ptr := mload(0x40\n    tag 54\t\t\t   let ptr := mload(0x40\n      JUMPDEST \t\t\t   let ptr := mload(0x40\n      SWAP1 \t\t\t              let ptr := mload...\n      POP \t\t\t              let ptr := mload...\n      SWAP2 \t\t\t     address child;\\r\\n       ...\n      SWAP1 \t\t\t     address child;\\r\\n       ...\n      POP \t\t\t     address child;\\r\\n       ...\n      JUMP \t\t\t     address child;\\r\\n       ...\n    tag 32\t\t\t           mstore(ptr, 0x60016...\n      JUMPDEST \t\t\t           mstore(ptr, 0x60016...\n      PUSH [tag] 56\t\t\t00)\\r\\n                   \n      DUP2 \t\t\t     \n      PUSH [tag] 31\t\t\t00)\\r\\n                   \n      JUMP \t\t\t00)\\r\\n                   \n    tag 56\t\t\t00)\\r\\n                   \n      JUMPDEST \t\t\t00)\\r\\n                   \n      DUP3 \t\t\t000\n      MSTORE \t\t\t00000000000000)\\r\\n           ...\n      POP \t\t\t           mstore(ptr, 0x60016...\n      POP \t\t\t           mstore(ptr, 0x60016...\n      JUMP \t\t\t           mstore(ptr, 0x60016...\n    tag 12\t\t\tate(0, ptr, 5)\\r\\n            ...\n      JUMPDEST \t\t\tate(0, ptr, 5)\\r\\n            ...\n      PUSH 0\t\t\ted()\n      PUSH 20\t\t\t C\n      DUP3 \t\t\t       em\n      ADD \t\t\t           emit Ch\n      SWAP1 \t\t\t    }\\r\\n            emit Ch\n      POP \t\t\t    }\\r\\n            emit Ch\n      PUSH [tag] 58\t\t\td(msg.sender, address(0), 0);\\...\n      PUSH 0\t\t\t\n      DUP4 \t\t\t\n      ADD \t\t\t\n      DUP5 \t\t\t  }\\r\\n}\n      PUSH [tag] 32\t\t\td(msg.sender, address(0), 0);\\...\n      JUMP \t\t\td(msg.sender, address(0), 0);\\...\n    tag 58\t\t\td(msg.sender, address(0), 0);\\...\n      JUMPDEST \t\t\td(msg.sender, address(0), 0);\\...\n      SWAP3 \t\t\tate(0, ptr, 5)\\r\\n            ...\n      SWAP2 \t\t\tate(0, ptr, 5)\\r\\n            ...\n      POP \t\t\tate(0, ptr, 5)\\r\\n            ...\n      POP \t\t\tate(0, ptr, 5)\\r\\n            ...\n      JUMP \t\t\tate(0, ptr, 5)\\r\\n            ...\n    tag 33\t\t\t\n      JUMPDEST \t\t\t\n      PUSH 0\t\t\t\n      DUP2 \t\t\t\n      SWAP1 \t\t\t\n      POP \t\t\t\n      SWAP2 \t\t\t\n      SWAP1 \t\t\t\n      POP \t\t\t\n      JUMP \t\t\t\n    tag 34\t\t\t\n      JUMPDEST \t\t\t\n      PUSH 0\t\t\t\n      DUP2 \t\t\t\n      SWAP1 \t\t\t\n      POP \t\t\t\n      SWAP2 \t\t\t\n      SWAP1 \t\t\t\n      POP \t\t\t\n      JUMP \t\t\t\n    tag 35\t\t\t\n      JUMPDEST \t\t\t\n      PUSH 0\t\t\t\n      PUSH [tag] 62\t\t\t\n      PUSH [tag] 63\t\t\t\n      PUSH [tag] 64\t\t\t\n      DUP5 \t\t\t\n      PUSH [tag] 33\t\t\t\n      JUMP \t\t\t\n    tag 64\t\t\t\n      JUMPDEST \t\t\t\n      PUSH [tag] 34\t\t\t\n      JUMP \t\t\t\n    tag 63\t\t\t\n      JUMPDEST \t\t\t\n      PUSH [tag] 27\t\t\t\n      JUMP \t\t\t\n    tag 62\t\t\t\n      JUMPDEST \t\t\t\n      SWAP1 \t\t\t\n      POP \t\t\t\n      SWAP2 \t\t\t\n      SWAP1 \t\t\t\n      POP \t\t\t\n      JUMP \t\t\t\n    tag 36\t\t\t\n      JUMPDEST \t\t\t\n      PUSH [tag] 66\t\t\t\n      DUP2 \t\t\t\n      PUSH [tag] 35\t\t\t\n      JUMP \t\t\t\n    tag 66\t\t\t\n      JUMPDEST \t\t\t\n      DUP3 \t\t\t\n      MSTORE \t\t\t\n      POP \t\t\t\n      POP \t\t\t\n      JUMP \t\t\t\n    tag 19\t\t\t\n      JUMPDEST \t\t\t\n      PUSH 0\t\t\t\n      PUSH 40\t\t\t\n      DUP3 \t\t\t\n      ADD \t\t\t\n      SWAP1 \t\t\t\n      POP \t\t\t\n      PUSH [tag] 68\t\t\t\n      PUSH 0\t\t\t\n      DUP4 \t\t\t\n      ADD \t\t\t\n      DUP6 \t\t\t\n      PUSH [tag] 32\t\t\t\n      JUMP \t\t\t\n    tag 68\t\t\t\n      JUMPDEST \t\t\t\n      PUSH [tag] 69\t\t\t\n      PUSH 20\t\t\t\n      DUP4 \t\t\t\n      ADD \t\t\t\n      DUP5 \t\t\t\n      PUSH [tag] 36\t\t\t\n      JUMP \t\t\t\n    tag 69\t\t\t\n      JUMPDEST \t\t\t\n      SWAP4 \t\t\t\n      SWAP3 \t\t\t\n      POP \t\t\t\n      POP \t\t\t\n      POP \t\t\t\n      JUMP \t\t\t\n    tag 37\t\t\t\n      JUMPDEST \t\t\t\n      PUSH [tag] 71\t\t\t\n      DUP2 \t\t\t\n      PUSH [tag] 27\t\t\t\n      JUMP \t\t\t\n    tag 71\t\t\t\n      JUMPDEST \t\t\t\n      DUP3 \t\t\t\n      MSTORE \t\t\t\n      POP \t\t\t\n      POP \t\t\t\n      JUMP \t\t\t\n    tag 23\t\t\t\n      JUMPDEST \t\t\t\n      PUSH 0\t\t\t\n      PUSH 40\t\t\t\n      DUP3 \t\t\t\n      ADD \t\t\t\n      SWAP1 \t\t\t\n      POP \t\t\t\n      PUSH [tag] 73\t\t\t\n      PUSH 0\t\t\t\n      DUP4 \t\t\t\n      ADD \t\t\t\n      DUP6 \t\t\t\n      PUSH [tag] 32\t\t\t\n      JUMP \t\t\t\n    tag 73\t\t\t\n      JUMPDEST \t\t\t\n      PUSH [tag] 74\t\t\t\n      PUSH 20\t\t\t\n      DUP4 \t\t\t\n      ADD \t\t\t\n      DUP5 \t\t\t\n      PUSH [tag] 37\t\t\t\n      JUMP \t\t\t\n    tag 74\t\t\t\n      JUMPDEST \t\t\t\n      SWAP4 \t\t\t\n      SWAP3 \t\t\t\n      POP \t\t\t\n      POP \t\t\t\n      POP \t\t\t\n      JUMP \t\t\t\n    .data\n"
}